{
  "contractName": "Suschainable",
  "abi": [
    {
      "inputs": [],
      "stateMutability": "nonpayable",
      "type": "constructor"
    },
    {
      "inputs": [
        {
          "internalType": "string",
          "name": "newOwner",
          "type": "string"
        },
        {
          "internalType": "uint256",
          "name": "nftIndex",
          "type": "uint256"
        }
      ],
      "name": "changeOwner",
      "outputs": [],
      "stateMutability": "nonpayable",
      "type": "function"
    }
  ],
  "bytecode": "0x60806040523480156200001157600080fd5b50600060405180606001604052806040518060400160405280600881526020017f52656420436f617400000000000000000000000000000000000000000000000081525081526020016040518060400160405280600e81526020017f412066617368696f6e20636f617400000000000000000000000000000000000081525081526020016040518060400160405280600481526020017f6e756c6c00000000000000000000000000000000000000000000000000000000815250815250908060018154018082558091505060019003906000526020600020906003020160009091909190915060008201518160000190816200010e91906200061f565b5060208201518160010190816200012691906200061f565b5060408201518160020190816200013e91906200061f565b505050600060405180606001604052806040518060400160405280600981526020017f426c756520436f6174000000000000000000000000000000000000000000000081525081526020016040518060400160405280600e81526020017f412066617368696f6e20636f617400000000000000000000000000000000000081525081526020016040518060400160405280600481526020017f6e756c6c00000000000000000000000000000000000000000000000000000000815250815250908060018154018082558091505060019003906000526020600020906003020160009091909190915060008201518160000190816200023d91906200061f565b5060208201518160010190816200025591906200061f565b5060408201518160020190816200026d91906200061f565b505050600060405180606001604052806040518060400160405280600a81526020017f477265656e20436f61740000000000000000000000000000000000000000000081525081526020016040518060400160405280600e81526020017f412066617368696f6e20636f617400000000000000000000000000000000000081525081526020016040518060400160405280600481526020017f6e756c6c00000000000000000000000000000000000000000000000000000000815250815250908060018154018082558091505060019003906000526020600020906003020160009091909190915060008201518160000190816200036c91906200061f565b5060208201518160010190816200038491906200061f565b5060408201518160020190816200039c91906200061f565b50505062000706565b600081519050919050565b7f4e487b7100000000000000000000000000000000000000000000000000000000600052604160045260246000fd5b7f4e487b7100000000000000000000000000000000000000000000000000000000600052602260045260246000fd5b600060028204905060018216806200042757607f821691505b6020821081036200043d576200043c620003df565b5b50919050565b60008190508160005260206000209050919050565b60006020601f8301049050919050565b600082821b905092915050565b600060088302620004a77fffffffffffffffffffffffffffffffffffffffffffffffffffffffffffffffff8262000468565b620004b3868362000468565b95508019841693508086168417925050509392505050565b6000819050919050565b6000819050919050565b600062000500620004fa620004f484620004cb565b620004d5565b620004cb565b9050919050565b6000819050919050565b6200051c83620004df565b620005346200052b8262000507565b84845462000475565b825550505050565b600090565b6200054b6200053c565b6200055881848462000511565b505050565b5b8181101562000580576200057460008262000541565b6001810190506200055e565b5050565b601f821115620005cf57620005998162000443565b620005a48462000458565b81016020851015620005b4578190505b620005cc620005c38562000458565b8301826200055d565b50505b505050565b600082821c905092915050565b6000620005f460001984600802620005d4565b1980831691505092915050565b60006200060f8383620005e1565b9150826002028217905092915050565b6200062a82620003a5565b67ffffffffffffffff811115620006465762000645620003b0565b5b6200065282546200040e565b6200065f82828562000584565b600060209050601f83116001811462000697576000841562000682578287015190505b6200068e858262000601565b865550620006fe565b601f198416620006a78662000443565b60005b82811015620006d157848901518255600182019150602085019450602081019050620006aa565b86831015620006f15784890151620006ed601f891682620005e1565b8355505b6001600288020188555050505b505050505050565b6105bd80620007166000396000f3fe608060405234801561001057600080fd5b506004361061002b5760003560e01c80633d97153414610030575b600080fd5b61004a60048036038101906100459190610213565b61004c565b005b81600082815481106100615761006061026f565b5b9060005260206000209060030201600201908161007e91906104b5565b505050565b6000604051905090565b600080fd5b600080fd5b600080fd5b600080fd5b6000601f19601f8301169050919050565b7f4e487b7100000000000000000000000000000000000000000000000000000000600052604160045260246000fd5b6100ea826100a1565b810181811067ffffffffffffffff82111715610109576101086100b2565b5b80604052505050565b600061011c610083565b905061012882826100e1565b919050565b600067ffffffffffffffff821115610148576101476100b2565b5b610151826100a1565b9050602081019050919050565b82818337600083830152505050565b600061018061017b8461012d565b610112565b90508281526020810184848401111561019c5761019b61009c565b5b6101a784828561015e565b509392505050565b600082601f8301126101c4576101c3610097565b5b81356101d484826020860161016d565b91505092915050565b6000819050919050565b6101f0816101dd565b81146101fb57600080fd5b50565b60008135905061020d816101e7565b92915050565b6000806040838503121561022a5761022961008d565b5b600083013567ffffffffffffffff81111561024857610247610092565b5b610254858286016101af565b9250506020610265858286016101fe565b9150509250929050565b7f4e487b7100000000000000000000000000000000000000000000000000000000600052603260045260246000fd5b600081519050919050565b7f4e487b7100000000000000000000000000000000000000000000000000000000600052602260045260246000fd5b600060028204905060018216806102f057607f821691505b602082108103610303576103026102a9565b5b50919050565b60008190508160005260206000209050919050565b60006020601f8301049050919050565b600082821b905092915050565b60006008830261036b7fffffffffffffffffffffffffffffffffffffffffffffffffffffffffffffffff8261032e565b610375868361032e565b95508019841693508086168417925050509392505050565b6000819050919050565b60006103b26103ad6103a8846101dd565b61038d565b6101dd565b9050919050565b6000819050919050565b6103cc83610397565b6103e06103d8826103b9565b84845461033b565b825550505050565b600090565b6103f56103e8565b6104008184846103c3565b505050565b5b81811015610424576104196000826103ed565b600181019050610406565b5050565b601f8211156104695761043a81610309565b6104438461031e565b81016020851015610452578190505b61046661045e8561031e565b830182610405565b50505b505050565b600082821c905092915050565b600061048c6000198460080261046e565b1980831691505092915050565b60006104a5838361047b565b9150826002028217905092915050565b6104be8261029e565b67ffffffffffffffff8111156104d7576104d66100b2565b5b6104e182546102d8565b6104ec828285610428565b600060209050601f83116001811461051f576000841561050d578287015190505b6105178582610499565b86555061057f565b601f19841661052d86610309565b60005b8281101561055557848901518255600182019150602085019450602081019050610530565b86831015610572578489015161056e601f89168261047b565b8355505b6001600288020188555050505b50505050505056fea26469706673582212205930a33db31cd3ee2f40ad52c281a41ed5ba5910a9fa61c11baff46ce93dd18c64736f6c63430008100033",
  "immutableReferences": {},
  "source": "// SPDX-License-Identifier: MIT\npragma solidity >=0.4.22 <0.9.0;\n\ncontract Suschainable { \n\n  struct NFT { \n    string title;\n    string description;\n    string owner;\n  }\n\n  NFT[] NFTs;\n\n  constructor() public {\n    NFTs.push(NFT(\"Red Coat\", \"A fashion coat\", \"null\"));\n    NFTs.push(NFT(\"Blue Coat\", \"A fashion coat\", \"null\"));\n    NFTs.push(NFT(\"Green Coat\", \"A fashion coat\", \"null\"));\n  }\n\n  function changeOwner(string memory newOwner, uint nftIndex) public {\n    NFTs[nftIndex].owner = newOwner;\n  }\n}\n",
  "sourcePath": "C:\\Users\\murilo\\Desktop\\hackaton\\hackaton22\\smart-contracts\\contracts\\Suschainable.sol",
  "compiler": {
    "name": "solc",
    "version": "0.8.16+commit.07a7930e.Emscripten.clang"
  },
  "schemaVersion": "3.4.9",
  "updatedAt": "2022-09-10T18:37:01.938Z",
  "networkType": "ethereum",
  "devdoc": {
    "kind": "dev",
    "methods": {},
    "version": 1
  },
  "userdoc": {
    "kind": "user",
    "methods": {},
    "version": 1
  }
}