{
  "contractName": "Suschainable",
  "abi": [
    {
      "inputs": [],
      "stateMutability": "nonpayable",
      "type": "constructor"
    },
    {
      "inputs": [
        {
          "internalType": "uint256",
          "name": "",
          "type": "uint256"
        }
      ],
      "name": "nfts",
      "outputs": [
        {
          "internalType": "string",
          "name": "title",
          "type": "string"
        },
        {
          "internalType": "string",
          "name": "description",
          "type": "string"
        },
        {
          "internalType": "string",
          "name": "owner",
          "type": "string"
        }
      ],
      "stateMutability": "view",
      "type": "function",
      "constant": true
    },
    {
      "inputs": [
        {
          "internalType": "string",
          "name": "newOwner",
          "type": "string"
        },
        {
          "internalType": "uint256",
          "name": "nftIndex",
          "type": "uint256"
        }
      ],
      "name": "changeOwner",
      "outputs": [],
      "stateMutability": "nonpayable",
      "type": "function"
    }
  ],
  "bytecode": "0x60806040523480156200001157600080fd5b5060405180606001604052806040518060400160405280600881526020017f4b6e65652050616400000000000000000000000000000000000000000000000081525081526020016040518060400160405280600f81526020017f4c6567732070726f74656374696f6e000000000000000000000000000000000081525081526020016040518060400160405280600481526020017f6e756c6c000000000000000000000000000000000000000000000000000000008152508152506000808081526020019081526020016000206000820151816000019081620000f5919062000d81565b5060208201518160010190816200010d919062000d81565b50604082015181600201908162000125919062000d81565b5090505060405180606001604052806040518060400160405280600681526020017f476c6f766573000000000000000000000000000000000000000000000000000081525081526020016040518060400160405280601081526020017f48616e64732070726f74656374696f6e0000000000000000000000000000000081525081526020016040518060400160405280600481526020017f6e756c6c000000000000000000000000000000000000000000000000000000008152508152506000806001815260200190815260200160002060008201518160000190816200020d919062000d81565b50602082015181600101908162000225919062000d81565b5060408201518160020190816200023d919062000d81565b5090505060405180606001604052806040518060400160405280600c81526020017f526f6c6c6572626c61646573000000000000000000000000000000000000000081525081526020016040518060400160405280601281526020017f526f6c6c206f76657220426574686f76656e000000000000000000000000000081525081526020016040518060400160405280600481526020017f6e756c6c0000000000000000000000000000000000000000000000000000000081525081525060008060028152602001908152602001600020600082015181600001908162000325919062000d81565b5060208201518160010190816200033d919062000d81565b50604082015181600201908162000355919062000d81565b5090505060405180606001604052806040518060400160405280600781526020017f53636f6f7465720000000000000000000000000000000000000000000000000081525081526020016040518060400160405280601581526020017f466f72206578747261206c617a792070656f706c65000000000000000000000081525081526020016040518060400160405280600481526020017f6e756c6c000000000000000000000000000000000000000000000000000000008152508152506000806003815260200190815260200160002060008201518160000190816200043d919062000d81565b50602082015181600101908162000455919062000d81565b5060408201518160020190816200046d919062000d81565b5090505060405180606001604052806040518060400160405280600c81526020017f446f677320436f6f6b696573000000000000000000000000000000000000000081525081526020016040518060400160405280600d81526020017f466565642074686520646f67730000000000000000000000000000000000000081525081526020016040518060400160405280600481526020017f6e756c6c0000000000000000000000000000000000000000000000000000000081525081525060008060048152602001908152602001600020600082015181600001908162000555919062000d81565b5060208201518160010190816200056d919062000d81565b50604082015181600201908162000585919062000d81565b5090505060405180606001604052806040518060400160405280600581526020017f536b61746500000000000000000000000000000000000000000000000000000081525081526020016040518060400160405280601081526020017f4265636f6d6520546f6e79204861776b0000000000000000000000000000000081525081526020016040518060400160405280600481526020017f6e756c6c000000000000000000000000000000000000000000000000000000008152508152506000806005815260200190815260200160002060008201518160000190816200066d919062000d81565b50602082015181600101908162000685919062000d81565b5060408201518160020190816200069d919062000d81565b5090505060405180606001604052806040518060400160405280600d81526020017f456c6563747269632042696b650000000000000000000000000000000000000081525081526020016040518060400160405280600f81526020017f466f72206c617a792070656f706c65000000000000000000000000000000000081525081526020016040518060400160405280600481526020017f6e756c6c0000000000000000000000000000000000000000000000000000000081525081525060008060068152602001908152602001600020600082015181600001908162000785919062000d81565b5060208201518160010190816200079d919062000d81565b506040820151816002019081620007b5919062000d81565b5090505060405180606001604052806040518060400160405280600681526020017f536861646573000000000000000000000000000000000000000000000000000081525081526020016040518060400160405280600b81526020017f4920616d204261746d616e00000000000000000000000000000000000000000081525081526020016040518060400160405280600481526020017f6e756c6c000000000000000000000000000000000000000000000000000000008152508152506000806007815260200190815260200160002060008201518160000190816200089d919062000d81565b506020820151816001019081620008b5919062000d81565b506040820151816002019081620008cd919062000d81565b5090505060405180606001604052806040518060400160405280601081526020017f42756c6c657470726f6f6620436f61740000000000000000000000000000000081525081526020016040518060400160405280600f81526020017f416c77617973207072657061726564000000000000000000000000000000000081525081526020016040518060400160405280600481526020017f6e756c6c00000000000000000000000000000000000000000000000000000000815250815250600080600881526020019081526020016000206000820151816000019081620009b5919062000d81565b506020820151816001019081620009cd919062000d81565b506040820151816002019081620009e5919062000d81565b5090505060405180606001604052806040518060400160405280600681526020017f48656c6d6574000000000000000000000000000000000000000000000000000081525081526020016040518060400160405280601f81526020017f556e6c6f636b2031303025206f6620436572656272616c20416374696f6e730081525081526020016040518060400160405280600481526020017f6e756c6c0000000000000000000000000000000000000000000000000000000081525081525060008060098152602001908152602001600020600082015181600001908162000acd919062000d81565b50602082015181600101908162000ae5919062000d81565b50604082015181600201908162000afd919062000d81565b5090505062000e68565b600081519050919050565b7f4e487b7100000000000000000000000000000000000000000000000000000000600052604160045260246000fd5b7f4e487b7100000000000000000000000000000000000000000000000000000000600052602260045260246000fd5b6000600282049050600182168062000b8957607f821691505b60208210810362000b9f5762000b9e62000b41565b5b50919050565b60008190508160005260206000209050919050565b60006020601f8301049050919050565b600082821b905092915050565b60006008830262000c097fffffffffffffffffffffffffffffffffffffffffffffffffffffffffffffffff8262000bca565b62000c15868362000bca565b95508019841693508086168417925050509392505050565b6000819050919050565b6000819050919050565b600062000c6262000c5c62000c568462000c2d565b62000c37565b62000c2d565b9050919050565b6000819050919050565b62000c7e8362000c41565b62000c9662000c8d8262000c69565b84845462000bd7565b825550505050565b600090565b62000cad62000c9e565b62000cba81848462000c73565b505050565b5b8181101562000ce25762000cd660008262000ca3565b60018101905062000cc0565b5050565b601f82111562000d315762000cfb8162000ba5565b62000d068462000bba565b8101602085101562000d16578190505b62000d2e62000d258562000bba565b83018262000cbf565b50505b505050565b600082821c905092915050565b600062000d566000198460080262000d36565b1980831691505092915050565b600062000d71838362000d43565b9150826002028217905092915050565b62000d8c8262000b07565b67ffffffffffffffff81111562000da85762000da762000b12565b5b62000db4825462000b70565b62000dc182828562000ce6565b600060209050601f83116001811462000df9576000841562000de4578287015190505b62000df0858262000d63565b86555062000e60565b601f19841662000e098662000ba5565b60005b8281101562000e335784890151825560018201915060208501945060208101905062000e0c565b8683101562000e53578489015162000e4f601f89168262000d43565b8355505b6001600288020188555050505b505050505050565b61086a8062000e786000396000f3fe608060405234801561001057600080fd5b50600436106100365760003560e01c8063265aa6211461003b5780633d9715341461006d575b600080fd5b610055600480360381019061005091906102bc565b610089565b60405161006493929190610379565b60405180910390f35b610087600480360381019061008291906104fa565b61024b565b005b60006020528060005260406000206000915090508060000180546100ac90610585565b80601f01602080910402602001604051908101604052809291908181526020018280546100d890610585565b80156101255780601f106100fa57610100808354040283529160200191610125565b820191906000526020600020905b81548152906001019060200180831161010857829003601f168201915b50505050509080600101805461013a90610585565b80601f016020809104026020016040519081016040528092919081815260200182805461016690610585565b80156101b35780601f10610188576101008083540402835291602001916101b3565b820191906000526020600020905b81548152906001019060200180831161019657829003601f168201915b5050505050908060020180546101c890610585565b80601f01602080910402602001604051908101604052809291908181526020018280546101f490610585565b80156102415780601f1061021657610100808354040283529160200191610241565b820191906000526020600020905b81548152906001019060200180831161022457829003601f168201915b5050505050905083565b81600080838152602001908152602001600020600201908161026d9190610762565b505050565b6000604051905090565b600080fd5b600080fd5b6000819050919050565b61029981610286565b81146102a457600080fd5b50565b6000813590506102b681610290565b92915050565b6000602082840312156102d2576102d161027c565b5b60006102e0848285016102a7565b91505092915050565b600081519050919050565b600082825260208201905092915050565b60005b83811015610323578082015181840152602081019050610308565b60008484015250505050565b6000601f19601f8301169050919050565b600061034b826102e9565b61035581856102f4565b9350610365818560208601610305565b61036e8161032f565b840191505092915050565b600060608201905081810360008301526103938186610340565b905081810360208301526103a78185610340565b905081810360408301526103bb8184610340565b9050949350505050565b600080fd5b600080fd5b7f4e487b7100000000000000000000000000000000000000000000000000000000600052604160045260246000fd5b6104078261032f565b810181811067ffffffffffffffff82111715610426576104256103cf565b5b80604052505050565b6000610439610272565b905061044582826103fe565b919050565b600067ffffffffffffffff821115610465576104646103cf565b5b61046e8261032f565b9050602081019050919050565b82818337600083830152505050565b600061049d6104988461044a565b61042f565b9050828152602081018484840111156104b9576104b86103ca565b5b6104c484828561047b565b509392505050565b600082601f8301126104e1576104e06103c5565b5b81356104f184826020860161048a565b91505092915050565b600080604083850312156105115761051061027c565b5b600083013567ffffffffffffffff81111561052f5761052e610281565b5b61053b858286016104cc565b925050602061054c858286016102a7565b9150509250929050565b7f4e487b7100000000000000000000000000000000000000000000000000000000600052602260045260246000fd5b6000600282049050600182168061059d57607f821691505b6020821081036105b0576105af610556565b5b50919050565b60008190508160005260206000209050919050565b60006020601f8301049050919050565b600082821b905092915050565b6000600883026106187fffffffffffffffffffffffffffffffffffffffffffffffffffffffffffffffff826105db565b61062286836105db565b95508019841693508086168417925050509392505050565b6000819050919050565b600061065f61065a61065584610286565b61063a565b610286565b9050919050565b6000819050919050565b61067983610644565b61068d61068582610666565b8484546105e8565b825550505050565b600090565b6106a2610695565b6106ad818484610670565b505050565b5b818110156106d1576106c660008261069a565b6001810190506106b3565b5050565b601f821115610716576106e7816105b6565b6106f0846105cb565b810160208510156106ff578190505b61071361070b856105cb565b8301826106b2565b50505b505050565b600082821c905092915050565b60006107396000198460080261071b565b1980831691505092915050565b60006107528383610728565b9150826002028217905092915050565b61076b826102e9565b67ffffffffffffffff811115610784576107836103cf565b5b61078e8254610585565b6107998282856106d5565b600060209050601f8311600181146107cc57600084156107ba578287015190505b6107c48582610746565b86555061082c565b601f1984166107da866105b6565b60005b82811015610802578489015182556001820191506020850194506020810190506107dd565b8683101561081f578489015161081b601f891682610728565b8355505b6001600288020188555050505b50505050505056fea264697066735822122086603358cefb699dfb60faf7d642e24db39cdf3d9511cb96c8f1d0d94551936664736f6c63430008100033",
  "immutableReferences": {},
  "source": "// SPDX-License-Identifier: MIT\npragma solidity >=0.4.22 <0.9.0;\n\ncontract Suschainable { \n\n  struct NFT { \n    string title;\n    string description;\n    string owner;\n  }\n\n  mapping(uint => NFT) public nfts;\n\n  constructor() {\n    nfts[0] = NFT(\"Knee Pad\", \"Legs protection\", \"null\") ;\n    nfts[1] = NFT(\"Gloves\", \"Hands protection\", \"null\");\n    nfts[2] = NFT(\"Rollerblades\", \"Roll over Bethoven\", \"null\");\n    nfts[3] = NFT(\"Scooter\", \"For extra lazy people\", \"null\");\n    nfts[4] = NFT(\"Dogs Cookies\", \"Feed the dogs\", \"null\");\n    nfts[5] = NFT(\"Skate\", \"Become Tony Hawk\", \"null\");\n    nfts[6] = NFT(\"Electric Bike\", \"For lazy people\", \"null\");\n    nfts[7] = NFT(\"Shades\", \"I am Batman\", \"null\");\n    nfts[8] = NFT(\"Bulletproof Coat\", \"Always prepared\", \"null\");\n    nfts[9] = NFT(\"Helmet\", \"Unlock 100% of Cerebral Actions\", \"null\");\n  }\n\n  function changeOwner(string memory newOwner, uint nftIndex) public {\n    nfts[nftIndex].owner = newOwner;\n  }\n}\n",
  "sourcePath": "C:\\Users\\murilo\\Desktop\\hackaton\\hackaton22\\smart-contracts\\contracts\\Suschainable.sol",
  "compiler": {
    "name": "solc",
    "version": "0.8.16+commit.07a7930e.Emscripten.clang"
  },
  "schemaVersion": "3.4.9",
  "updatedAt": "2022-09-11T16:32:48.688Z",
  "networkType": "ethereum",
  "devdoc": {
    "kind": "dev",
    "methods": {},
    "version": 1
  },
  "userdoc": {
    "kind": "user",
    "methods": {},
    "version": 1
  }
}